:020000040800F2
:10000000600600200D020008490200084B020008AB
:100010004D0200084F0200085102000800000000D5
:100020000000000000000000000000005302000873
:10003000550200080000000057020008590200089D
:100040005B0200085B0200085B0200085B0200081C
:100050005B0200085B0200085B0200085B0200080C
:100060005B0200085B0200085B0200085B020008FC
:100070005B0200085B0200085B0200085B020008EC
:100080005B0200085B0200085B0200085B020008DC
:100090005B0200085B0200085B0200085B020008CC
:1000A0005B0200085B0200085B0200085B020008BC
:1000B0005B0200085B0200085B0200085B020008AC
:1000C0005B0200085B0200085B0200085B0200089C
:1000D0005B0200085B0200085B0200085B0200088C
:1000E0005B0200085B0200085B0200085B0200087C
:1000F0005B0200085B0200085B0200085B0200086C
:100100005B0200085B0200085B0200085B0200085B
:100110005B0200085B0200085B0200085B0200084B
:100120005B0200085B0200085B0200085B0200083B
:100130005B0200085B0200085B0200085B0200082B
:100140005B0200085B0200085B0200085B0200081B
:100150005B0200085B0200085B0200085B0200080B
:100160005B0200085B0200085B0200085B020008FB
:100170005B0200085B0200085B0200080000000050
:100180005B0200085B02000800F002F800F02EF8A5
:100190000AA090E8000C82448344AAF10107DA45E2
:1001A00001D100F023F8AFF2090EBAE80F0013F006
:1001B000010F18BFFB1A43F0010318475406000053
:1001C000640600000023002400250026103A28BF02
:1001D00078C1FBD8520728BF30C148BF0B607047B9
:1001E0001FB500F010FB1FBD10B510BD00F053F897
:1001F0001146FFF7F5FF00F000F900F071F803B4C5
:10020000FFF7F2FF03BC00F079F800001648174929
:10021000174B99423CBF50F8042B41F8042BF8D3FC
:1002200014494FF000028B4238BF43F8042BFAD335
:10023000DFF84400016841F470010160BFF34F8FA3
:10024000BFF36F8F0D480047FEE7FEE7FEE7FEE7CE
:10025000FEE7FEE7FEE7FEE7FEE7FEE7084809499E
:10026000094A0A4B704700002008000800000020DF
:10027000000000206006002088ED00E089010008F1
:100280006000002060060020600200206002002064
:10029000704770477047754600F02CF8AE46050071
:1002A0006946534620F00700854618B020B5FFF791
:1002B000D5FFBDE820404FF000064FF000074FF09B
:1002C00000084FF0000B21F00701AC46ACE8C00974
:1002D000ACE8C009ACE8C009ACE8C0098D4670477D
:1002E00010B50446AFF300802046BDE81040FFF78C
:1002F00086BF000000487047000000200149182018
:10030000ABBEFEE7260002007047000017480068F9
:1003100040F480701549086000BF1448006800F47C
:1003200080600028F9D01148806820F003000F4950
:1003300088600846806840F00100886000BF0B4874
:10034000806800F00C000028F9D00848C06C40F02C
:1003500001000649C8640846C06C40F01000C8643B
:100360000846C06C40F08000C8647047001002402E
:100370004FF09040006820F00C004FF09041086072
:100380000846006820F0300008600846C06840F069
:100390000800C8600846C06840F02000C860704788
:1003A000F0B50446002500264FF09040006920403B
:1003B000A04201D1012000E0002007460FB9002033
:1003C000F0BD002615E0052000F010FA4FF0904037
:1003D00000692040A04201D1012000E00020074632
:1003E0000FB9002504E06D1C042D01DB0120E7E7B7
:1003F000761C0A2EE7DB0020E2E700BF0425022678
:10040000FFF784FF00F0A4F9FFF7B2FF15E02846DC
:10041000FFF7C6FF38B1092C01D14FF0FF34641C3F
:10042000204600F00BF83046FFF7BAFF28B104B9B8
:100430000A24641E204600F001F8E8E720BBC24908
:10044000496941F48061C04A51611146496941F4EA
:10045000006151611146496941F480515161114671
:10046000496941F4005151611146496941F48041A3
:1004700051611146496941F400415161B34909682C
:1004800021F00101B14A1160012824D1AE49496926
:1004900021F48061AC4A51611146496921F400613F
:1004A00051611146496941F48051516111464969D0
:1004B00041F4005151611146496921F48041516173
:1004C0001146496921F400415161A049096821F0B0
:1004D00001019E4A1160022824D19B49496941F4D7
:1004E0008061994A51611146496941F40061516145
:1004F0001146496921F4805151611146496941F41D
:10050000005151611146496941F4804151611146E0
:10051000496921F4004151618C49096841F00101A8
:100520008A4A1160032824D18749496921F48061EE
:10053000854A51611146496941F400615161114692
:10054000496941F4805151611146496941F40051B2
:1005500051611146496941F480415161114649692F
:1005600021F4004151617949096841F00101774A5C
:100570001160042824D17449496921F48061724AC8
:1005800051611146496921F400615161114649697F
:1005900041F4805151611146496941F40051516162
:1005A0001146496921F4804151611146496941F47C
:1005B000004151616549096841F00101634A1160D8
:1005C000052824D16049496921F480615E4A51615E
:1005D0001146496941F4006151611146496941F48C
:1005E000805151611146496921F400515161114610
:1005F000496941F4804151611146496941F4004122
:1006000051615249096841F00101504A11600628C0
:1006100024D14D49496941F480614B4A51611146E9
:10062000496941F4006151611146496941F48051C1
:1006300051611146496921F40051516111464969DE
:1006400041F4804151611146496941F400415161D1
:100650003E49096841F001013C4A1160072824D154
:100660003949496921F48061374A51611146496924
:1006700021F4006151611146496941F48051516191
:100680001146496941F4005151611146496941F4EB
:10069000804151611146496921F4004151612B4962
:1006A000096821F00101294A1160082824D126494E
:1006B000496941F48061244A51611146496941F414
:1006C000006151611146496941F4805151611146FF
:1006D000496941F4005151611146496941F4804131
:1006E00051611146496941F4004151611749096856
:1006F00041F00101154A1160092824D112494969C4
:1007000021F48061104A51611146496941F4006148
:1007100051611146496941F480515161114649695D
:1007200041F4005151611146496941F480415161E0
:100730001146496941F4004151610449096841F099
:100740000101024A1160704700100048141C004863
:100750002448006820F440102249086008460068D8
:1007600040F4801008600846006820F440000860EB
:100770000846006840F4800008600846006820F0E1
:10078000407008600846006840F0807008600846C5
:10079000006820F0406008600846006840F0806013
:1007A00008600846006820F040500860084600686D
:1007B00040F0805008600846006820F04040086023
:1007C0000846006840F0804008600748006820F054
:1007D0000300054908600846006840F00100086011
:1007E0007047000000100048001C0048002107E08E
:1007F000002200E0521C44F250639A42FAD3491C92
:100800008142F5D370474FF04070E1EE100A704717
:10081000200800080000002060060000C401000855
:040000050800018965
:00000001FF
